:020000040000FA
:100000000A128A11FC2F00308A000408840A820731
:100010000034553441345234543420344D346F3428
:10002000643475346C346534203449346E34693446
:100030007434693461346C3469347A3465346434CA
:10004000203461346E346434203461346334743465
:1000500069347634653400345234453444342034C1
:100060004C344534443420342D343E3420344F3421
:100070004E34003452344534443420342D343E342C
:0A00800020344F3446344634003477
:100EC800F000831203130C1E6A2F6B2F652F700816
:100ED8009900080083120313981C732F742F762F20
:100EE800181218168C1E792F7A2F762F1A080800D8
:100EF80083160313071387178130990018151812E2
:100F08008312031398178316031398168312031377
:100F180018168316031318138312031318130800E3
:100F2800F200A62F720884000A128A1103200A12FE
:100F38008A110A128A1164270A128A110130F100F3
:100F48007108F207720884000A128A1103200A1233
:100F58008A11003A031DB12FB22F962F080083166D
:100F6800031386010A128A117C270A128A1101309A
:100F78000A128A1194270A128A110A128A116E27F4
:100F88000A128A11F300F4017308F5007408F600D8
:100F9800313075067604031DD22FD32FE22F83122A
:100FA8000313861524300A128A1194270A128A110B
:100FB8000A300A128A1164270A128A11303075061B
:100FC8007604031DE82FE92FC12F8312031386111E
:100FD80032300A128A1194270A128A110A300A1228
:100FE8008A1164270A128A11C12F0A128A1100284D
:080FF80083010A128A11B32FD4
:02400E007A3FF7
:00000001FF
