:020000040000FA
:060000000A128A11E62F2E
:10080C0064008001840A0406031900340406072CD2
:10081C00F000831203130C1E142C152C0F2C7008D3
:10082C00990008003A3489340E3489341E348934E2
:10083C00DF348834FA3488340134893400300A12B5
:10084C008A1180240A128A1101300A128A1180241A
:10085C000A128A11080083120313981C362C372CA9
:10086C00392C181218168C1E3C2C3D2C392C1A08BD
:10087C0008007E088A007F0882000A128A113F2431
:10088C000A128A118000840A04087D0603190034B8
:10089C00FF0A0319FE0A432C1930F1008930F200CB
:1008AC000A128A11DC240A128A110A128A11782679
:1008BC000A128A11013A0319642C662C0130672C38
:1008CC000030080083160313071387173330990081
:1008DC0018151812831203139817831603139816FE
:1008EC00831203131816831603131813831203139E
:1008FC0018130800F30083120313081173080A126B
:10090C008A11BA240A128A118312031388150B3028
:10091C00F2006230F100F10B912CF20B912C0000E3
:10092C008312031388110800F400CA30F1008830D8
:10093C00F2000A128A11DC240A128A117408303E61
:10094C000A128A110E240A128A111630F10089300B
:10095C00F2000A128A11DC240A128A110A128A1174
:10096C0078260A128A110800F000701CBE2CBF2CCD
:10097C00C32C831203130816C62C831203130812FC
:10098C00F01CC92CCA2CCC2C8816CD2C8812701DAE
:10099C00D02CD12CD32C0817D42C0813F01DD72C09
:1009AC00D82CDA2C8817DB2C88130800F12C720851
:1009BC00FF00710884000A128A1500200A128A119D
:1009CC000A128A110E240A128A110130F107031837
:1009DC00F20A0030F207720883120313FF00710849
:1009EC0084000A128A1500200A128A11003A031D8B
:1009FC00002D012DDD2C0800BF30F1008830F200F5
:100A0C000A128A11DC240A128A117408F100750882
:100A1C00F2000A128A11DC240A128A112730F10022
:100A2C008930F2000A128A11DC240A128A11760823
:100A3C00F1007708F2000A128A11DC240A128A11DA
:100A4C00F230F1008830F2000A128A11DC240A120A
:100A5C008A110A128A1178260A128A110800831246
:100A6C000313A001A1015E2D20087907FC007A0870
:100A7C00FB000318FB0AA01F442DFB037B08FD00A1
:100A8C007D0883120313FF007C0884000A128A1568
:100A9C0000200A128A110A128A111B260A128A11C4
:100AAC00013083120313A0070318A10A0030A10719
:100ABC0020087907FC007A08FB000318FB0AA01F2A
:100ACC00682DFB037B08FD007D0883120313FF00D8
:100ADC007C0884000A128A1500200A128A11003A36
:100AEC00031D792D7A2D3A2D080000300A128A1137
:100AFC00BA240A128A110D30F500FB30F400F40B05
:100B0C00852DF50B852D8A2D03300A128A11802430
:100B1C000A128A111D30F5009130F400F40B942D5B
:100B2C00F50B942D03300A128A1180240A128A11B3
:100B3C0002300A128A1180240A128A1102300A1217
:100B4C008A1180240A128A1108300A128A11802410
:100B5C000A128A1100300A128A1180240A128A1190
:100B6C000C300A128A1180240A128A1100300A12DF
:100B7C008A1180240A128A1106300A128A118024E2
:100B8C000A128A110800F7007703031DCE2DCF2D12
:100B9C00F22D74087F3EF5007508FA007A08F5000E
:100BAC0004300310F50CFF3E031DD72D7508F6001D
:100BBC007608F8007A080F39F5007508F9007808FE
:100BCC000A128A1180240A128A1179080A128A11CF
:100BDC0080240A128A111A2E02307706031DF72D73
:100BEC00F82D1A2E7408BF3EF5007508FA007A0825
:100BFC00F50004300310F50CFF3E031D002E7508A4
:100C0C00F6007608F8007A080F39F5007508F90037
:100C1C0078080A128A1180240A128A1179080A1299
:100C2C008A1180240A128A110800F40074080F3902
:100C3C00F1007108F2007408F039F1007108F3004A
:100C4C008312031308157308F10004300310F10C20
:100C5C00FF3E031D2C2E71080A128A11BA240A12A7
:100C6C008A118312031388153330F5008230F60095
:100C7C00831203138811FF30F5070318F60AFF30AF
:100C8C00F6077608803AFF0080307F02031D502E55
:100C9C0001307502031C532E542E3E2E72080A127C
:100CAC008A11BA240A128A1183120313881533305D
:100CBC00F7008230F800831203138811FF30F70716
:100CCC000318F80AFF30F8077808803AFF008030E4
:100CDC007F02031D732E01307702031C762E772EB4
:100CEC00612E08002C3084000630FF008313800135
:100CFC00840AFF0B7C2E203084004A30F00004085C
:100D0C00F1000C30F2007008840083130008F3002B
:100D1C00F00A7108840073088000F10AF20B892E26
:100D2C0083120313B401B40A042F0A128A1131245A
:100D3C000A128A11F000700883120313B200B50175
:100D4C003508F0007007203E840083130008F10082
:100D5C00840A0008F20035082C3E84000008710754
:100D6C00840072080318720AFF000A128A15002008
:100D7C000A128A113206031DC42EC52EF52E01301F
:100D8C00F00035082C3E840070088313800735086A
:100D9C00183E840088300318013EFF000A128A15A1
:100DAC0000200A128A11F00035082C3E84008313AF
:100DBC0000087006031DE32EE42EFA2E3508123EB1
:100DCC00840088300318013EFF000A128A150020A7
:100DDC000A128A11F0007008B300B401FA2E35081B
:100DEC002C3E8400831380010130F0007008B5079D
:100DFC0006303502031C032F042FA62E3408031DC6
:100E0C00082F092F9B2E3308080083160313880123
:100E1C000A128A117B250A128A110A128A11682475
:100E2C000A128A11F401F40A01300A128A11C92536
:100E3C000A128A115A30F9008830FA000A128A1103
:100E4C0035250A128A11F401F40A02300A128A11A9
:100E5C00C9250A128A112F30F9008830FA000A12BB
:100E6C008A1135250A128A11103083120313B80027
:100E7C003930B7000D30B600B60B422FB70B422FEE
:100E8C00B80B422F0A128A1124240A128A11F40177
:100E9C00F40A01300A128A11C9250A128A11763015
:100EAC00F9008830FA000A128A1135250A128A11C3
:100EBC000A128A1152240A128A11003A0319672F56
:100ECC00682F4D2FF401F40A01300A128A11C9253A
:100EDC000A128A111E30F9008830FA000A128A119F
:100EEC0035250A128A11103083120313B8003930D9
:100EFC00B7000D30B600B60B812FB70B812FB80B96
:100F0C00812F0A128A1124240A128A1102300A1221
:100F1C008A119A240A128A11F401F40A01300A1275
:100F2C008A11C9250A128A114C30F9008830FA004E
:100F3C000A128A1135250A128A11103083120313F2
:100F4C00B8003930B7000D30B600B60BAB2FB70B6D
:100F5C00AB2FB80BAB2F0A128A1124240A128A1158
:100F6C008430F4008830F500D530F6008830F70076
:100F7C000A128A1102250A128A11F401F40A0130AC
:100F8C000A128A11C9250A128A116830F9008830B0
:100F9C00FA000A128A1135250A128A1110308312AE
:100FAC000313B8003930B7000D30B600B60BDC2F88
:100FBC00B70BDC2FB80BDC2FE22F0A128A1100289A
:100FCC0083135630FD000430FE001830FF004A3009
:100FDC0084000A128A1143240A128A1139308400BF
:100FEC004A300A128A1106240A128A1183010A1243
:100FFC008A110B2FFF1B0A2883137F1883170008F5
:10100C00840A0319FF0A08007F087F398A00040844
:10101C00840A0319FF0A82000134023403340434B5
:10102C0005340634023405340434093406340634E9
:10103C00453453345034203469347334203463349D
:10104C006F346E346E3465346334743465346434A4
:10105C0000345034413452344B3449344E344734D8
:10106C002034533459345334543445344D340034CF
:10107C00413454342B344334493450345334543481
:10108C004134523454343D342234003445345334D6
:10109C0050342034733465347434203461347334F4
:1010AC00203441345034003449344F3454342034D7
:1010BC004234413453344534443420344334413481
:1010CC005234003441345034203463346F346E3431
:1010DC00663469346734753472346534643400347E
:1010EC0045345334503420346E346F3474342034DB
:1010FC0066346F3475346E3464340034433469347C
:10110C0072346334753469347434443469346734F8
:10111C006534733474340034413454342B344334D4
:10112C0049345034533445344E3444343D34003413
:10113C00413454342B3443345734513441345034C7
:10114C000D340A340034413454342B344334493490
:10115C004634533452340D340A340034413454344C
:10116C002B34433457344A34413450343D342234D4
:10117C000034413454342B344334573453344134D5
:10118C0050343D3422340034413454342B34433401
:10119C0057344D344F34443445343D3400343634B4
:1011AC0031343934303430343734313432343334FC
:1011BC0000346E346F3420346334683461346E34EC
:1011CC00673465340034413454342B345234533442
:1011DC0054340D340A34003422342C3435342C3449
:1011EC0033340D340A3400344C3469346E346B347B
:1011FC0065346434003455346E346C3469346E3474
:10120C006B3400342B344934503444342C34003493
:10121C007234653461346434793400340D340A34F6
:10122C000D340A340034413454340D340A3400344F
:10123C004634413449344C34003422340D340A34AD
:10124C00003422342C3422340034413454344534A8
:10125C000034543443345034003455344434503412
:10126C00003422342C3400344F344B3400342534C5
:04127C007534003491
:02400E007A3FF7
:00000001FF
