:020000040000FA
:060000000A128A11E62F2E
:1008020064008001840A0406031900340406022CE1
:10081200F000831203130C1E0F2C102C0A2C7008EC
:10082200990008003A3489340E3489341E348934EC
:10083200DF348834FA3488340134893400300A12BF
:100842008A117B240A128A1101300A128A117B242E
:100852000A128A11080083120313981C312C322CBD
:10086200342C181218168C1E372C382C342C1A08DB
:1008720008007E088A007F0882000A128A113A2440
:100882000A128A118000840A04087D0603190034C2
:10089200FF0A0319FE0A3E2C1930F1008930F200DA
:1008A2000A128A11D7240A128A110A128A1174268C
:1008B2000A128A11013A03195F2C612C0130622C51
:1008C200003008008316031307138717813099003D
:1008D2001815181283120313981783160313981608
:1008E20083120313181683160313181383120313A8
:1008F20018130800F30083120313081173080A1275
:100902008A11B5240A128A118312031388151A3028
:10091200F200F830F100F10B8C2CF20B8C2C000061
:100922008312031388110800F400CA30F1008830E2
:10093200F2000A128A11D7240A128A117408303E70
:100942000A128A1109240A128A111630F10089301A
:10095200F2000A128A11D7240A128A110A128A1183
:1009620074260A128A110800F000701CB92CBA2CE5
:10097200BE2C831203130816C12C83120313081210
:10098200F01CC42CC52CC72C8816C82C8812701DCC
:10099200CB2CCC2CCE2C0817CF2C0813F01DD22C2C
:1009A200D32CD52C8817D62C88130800EC2C72086F
:1009B200FF00710884000A128A1500200A128A11A7
:1009C2000A128A1109240A128A110130F107031846
:1009D200F20A0030F207720883120313FF00710853
:1009E20084000A128A1500200A128A11003A031D95
:1009F200FB2CFC2CD82C0800BF30F1008830F20010
:100A02000A128A11D7240A128A117408F100750891
:100A1200F2000A128A11D7240A128A112730F10031
:100A22008930F2000A128A11D7240A128A11760832
:100A3200F1007708F2000A128A11D7240A128A11E9
:100A4200F230F1008830F2000A128A11D7240A1219
:100A52008A110A128A1174260A128A110800831254
:100A62000313A001A101592D20087907FC007A087F
:100A7200FB000318FB0AA01F3F2DFB037B08FD00B0
:100A82007D0883120313FF007C0884000A128A1572
:100A920000200A128A110A128A1117260A128A11D2
:100AA200013083120313A0070318A10A0030A10723
:100AB20020087907FC007A08FB000318FB0AA01F34
:100AC200632DFB037B08FD007D0883120313FF00E7
:100AD2007C0884000A128A1500200A128A11003A40
:100AE200031D742D752D352D080000300A128A1150
:100AF200B5240A128A112130F5007630F400F40B85
:100B0200802DF50B802D000003300A128A117B2400
:100B12000A128A114830F5006C30F400F40B8F2D64
:100B2200F50B8F2D000003300A128A117B240A1262
:100B32008A1102300A128A117B240A128A110230A7
:100B42000A128A117B240A128A1108300A128A11A7
:100B52007B240A128A1100300A128A117B240A129B
:100B62008A110C300A128A117B240A128A1100306F
:100B72000A128A117B240A128A1106300A128A1179
:100B82007B240A128A110800F7007703031DCA2D7D
:100B9200CB2DEE2D74087F3EF5007508FA007A0819
:100BA200F50004300310F50CFF3E031DD32D75082C
:100BB200F6007608F8007A080F39F5007508F90092
:100BC20078080A128A117B240A128A1179080A12F9
:100BD2008A117B240A128A11162E02307706031D0F
:100BE200F32DF42D162E7408BF3EF5007508FA0099
:100BF2007A08F50004300310F50CFF3E031DFC2DAE
:100C02007508F6007608F8007A080F39F5007508BD
:100C1200F90078080A128A117B240A128A117908CB
:100C22000A128A117B240A128A110800F40074083D
:100C32000F39F1007108F2007408F039F1007108FF
:100C4200F3008312031308157308F1000430031034
:100C5200F10CFF3E031D282E71080A128A11B524D9
:100C62000A128A118312031388153330F500823079
:100C7200F600831203138811FF30F5070318F60AF2
:100C8200FF30F6077608803AFF0080307F02031DAE
:100C92004C2E01307502031C4F2E502E3A2E720834
:100CA2000A128A11B5240A128A11831203138815B3
:100CB2003330F7008230F800831203138811FF30BB
:100CC200F7070318F80AFF30F8077808803AFF00A0
:100CD20080307F02031D6F2E01307702031C722EBB
:100CE200732E5D2E08002C3084000630FF00831323
:100CF2008001840AFF0B782E203084004A30F000F5
:100D02000408F1000C30F20070088400831300081C
:100D1200F300F00A7108840073088000F10AF20BF4
:100D2200852E83120313B401B40A002F0A128A110A
:100D32002C240A128A11F000700883120313B200E5
:100D4200B5013508F0007007203E840083130008C7
:100D5200F100840A0008F20035082C3E84000008E5
:100D62007107840072080318720AFF000A128A15BA
:100D720000200A128A113206031DC02EC12EF12E46
:100D82000130F00035082C3E840070088313800780
:100D92003508183E840088300318013EFF000A120D
:100DA2008A1500200A128A11F00035082C3E8400B0
:100DB200831300087006031DDF2EE02EF62E350881
:100DC200123E840088300318013EFF000A128A1581
:100DD20000200A128A11F0007008B300B401F62E46
:100DE20035082C3E8400831380010130F000700826
:100DF200B50706303502031CFF2E002FA22E340841
:100E0200031D042F052F972E3308080083160313A2
:100E120088010A128A1176250A128A110A128A1187
:100E220063240A128A11F401F40A01300A128A11A7
:100E3200C5250A128A115A30F9008830FA000A12BE
:100E42008A1130250A128A11F401F40A02300A12B8
:100E52008A11C5250A128A112F30F9008830FA004A
:100E62000A128A1130250A128A11273083120313BB
:100E7200B8000D30B7002530B600B60B3E2FB70BC9
:100E82003E2FB80B3E2F452F0A128A111F240A1239
:100E92008A11F401F40A01300A128A11C5250A12D4
:100EA2008A117630F9008830FA000A128A11302548
:100EB2000A128A110A128A114D240A128A11003A60
:100EC2000319642F652F4A2FF401F40A01300A1224
:100ED2008A11C5250A128A111E30F9008830FA00DB
:100EE2000A128A1130250A128A112730831203133B
:100EF200B8000D30B7002530B600B60B7E2FB70B09
:100F02007E2FB80B7E2F852F0A128A111F240A12F8
:100F12008A1102300A128A1195240A128A11F401E6
:100F2200F40A01300A128A11C5250A128A114C30BC
:100F3200F9008830FA000A128A1130250A128A1141
:100F4200273083120313B8000D30B7002530B600E6
:100F5200B60BA92FB70BA92FB80BA92FB02F0A12C6
:100F62008A111F240A128A118430F4008830F50095
:100F7200D530F6008830F7000A128A11FD240A12D1
:100F82008A11F401F40A01300A128A11C5250A12E3
:100F92008A116830F9008830FA000A128A11302565
:100FA2000A128A11273083120313B8000D30B700DA
:100FB2002530B600B60BDB2FB70BDB2FB80BDB2FC0
:100FC200E22FE22F0A128A11002883135630FD0005
:100FD2000430FE001330FF004A3084000A128A11E6
:100FE2003E240A128A11393084004A300A128A11C8
:100FF20001240A128A1183010A128A11072FFF1B88
:101002000A2883137F1883170008840A0319FF0A2A
:1010120008007F087F398A000408840A0319FF0A3E
:1010220082000134023403340434053406340234B9
:101032000534043409340634063445345334503408
:10104200203469347334203463346F346E346E3434
:101052006534633474346534643400345034413458
:1010620052344B3449344E34473420345334593497
:101072005334543445344D340034413454342B34D5
:101082004334493450345334543441345234543454
:101092003D342234003445345334503420347334D4
:1010A2006534743420346134733420344134503420
:1010B200003449344F3454342034423441345334AC
:1010C20045344434203443344134523400344134BE
:1010D2005034203463346F346E3466346934673488
:1010E20075347234653464340034453453345034C6
:1010F20020346E346F347434203466346F34753473
:101102006E34643400344334693472346334753475
:1011120069347434443469346734653473347434F0
:101122000034413454342B3443344934503453342E
:1011320045344E3444343D340034413454342B3439
:10114200433457345134413450340D340A3400346A
:10115200413454342B3443344934463453345234B6
:101162000D340A340034413454342B34433457346C
:101172004A34413450343D342234003441345434FE
:101182002B34433457345334413450343D342234B5
:101192000034413454342B34433457344D344F34B7
:1011A200443445343D340034363431343934303407
:1011B2003034373431343234333400346E346F34B3
:1011C20020346334683461346E34673465340034F7
:1011D200413454342B345234533454340D340A349D
:1011E200003422342C3435342C3433340D340A3464
:1011F20000344C3469346E346B34653464340034F6
:1012020055346E346C3469346E346B3400342B34A0
:101212004934503444342C340034723465346134EB
:101222006434793400340D340A340D340A34003411
:10123200413454340D340A34003446344134493490
:101242004C34003422340D340A34003422342C3429
:101252002234003441345434453400345434433459
:1012620050340034553444345034003422342C3455
:0E12720000344F344B340034253475340034CE
:02400E007A3FF7
:00000001FF
