:020000040000FA
:100000000A128A11FC2F00308A000408840A820731
:100010000034453453345034353432343634363485
:10002000203477346934743468342034503449349B
:10003000433400344334693472346334753469347E
:10004000743420344434693467346534733474341C
:08005000003432343334003473
:100C1200F000831203130C1E0F2E102E0A2E7008E2
:100C22009900080000300A128A1138260A128A1125
:100C320001300A128A1138260A128A110800831614
:100C4200031307138717813099001815181283129E
:100C52000313981783160313981683120313181697
:100C62008316031318138312031318130800F300D7
:100C720083120313081173080A128A1171260A12C9
:100C82008A118312031388151A30F200F830F1002A
:100C9200F10B492EF20B492E000083120313881127
:100CA2000800F200642E720884000A128A110320DE
:100CB2000A128A110A128A1109260A128A110130AD
:100CC200F1007108F207720884000A128A110320E7
:100CD2000A128A11003A031D6F2E702E542E08003C
:100CE200F000701C752E762E7A2E831203130816CE
:100CF2007D2E831203130812F01C802E812E832E68
:100D02008816842E8812701D872E882E8A2E081728
:100D12008B2E0813F01D8E2E8F2E912E8817922E59
:100D220088130800FB00F901FA01AA2E79087B0753
:100D320084000A128A1103200A128A110A128A11E5
:100D42009F270A128A110130F9070318FA0A0030A4
:100D5200FA0779087B0784000A128A1103200A1213
:100D62008A11003A031DB62EB72E972E080083165D
:100D7200031388010A128A11FE260A128A110A1224
:100D82008A1120260A128A11F401F40A01300A1289
:100D92008A114D270A128A1112300A128A119326D9
:100DA2000A128A11F401F40A02300A128A114D273A
:100DB2000A128A1101300A128A1193260A128A1122
:100DC200273083120313A2000D30A1002530A000AA
:100DD200A00BE92EA10BE92EA20BE92EF02E0A128E
:100DE2008A1113260A128A1121300A128A115226F6
:100DF2000A128A110A128A11002800300A128A1174
:100E020071260A128A112130F5007630F400F40BB3
:100E1200082FF50B082F000003300A128A1138261A
:100E22000A128A114830F5006C30F400F40B172FC7
:100E3200F50B172F000003300A128A1138260A1206
:100E42008A1102300A128A1138260A128A110230D5
:100E52000A128A1138260A128A1108300A128A11D5
:100E620038260A128A1100300A128A1138260A120A
:100E72008A110C300A128A1138260A128A1100309D
:100E82000A128A1138260A128A1106300A128A11A7
:100E920038260A128A110800F7007703031D522F21
:100EA200532F762F74087F3EF5007508FA007A08F2
:100EB200F50004300310F50CFF3E031D5B2F75088F
:100EC200F6007608F8007A080F39F5007508F9007F
:100ED20078080A128A1138260A128A1179080A1227
:100EE2008A1138260A128A119E2F02307706031DB4
:100EF2007B2F7C2F9E2F7408BF3EF5007508FA00E9
:100F02007A08F50004300310F50CFF3E031D842F10
:100F12007508F6007608F8007A080F39F5007508AA
:100F2200F90078080A128A1138260A128A117908F9
:100F32000A128A1138260A128A110800F800780863
:100F42000F39F1007108F2007808F039F1007108E8
:100F5200F3008312031308157308F1000430031021
:100F6200F10CFF3E031DB02F71080A128A1171267F
:100F72000A128A118312031388153330F400823067
:100F8200F500831203138811FF30F4070318F50AE2
:100F9200FF30F5077508803AFF0080307F02031D9D
:100FA200D42F01307402031CD72FD82FC22F7208FE
:100FB2000A128A1171260A128A11831203138815E2
:100FC2003330F6008230F700831203138811FF30AA
:100FD200F6070318F70AFF30F7077708803AFF0091
:100FE20080307F02031DF72F01307602031CFA2F97
:0E0FF200FB2FE52F080083010A128A11B82E8A
:02400E007A3FF7
:00000001FF
